{
  "_format": "hh-sol-artifact-1",
  "contractName": "AIModelMarketplace",
  "sourceName": "contracts/AIModelMarketplace.sol",
  "abi": [
    {
      "inputs": [
        {
          "internalType": "address",
          "name": "tokenAddress",
          "type": "address"
        }
      ],
      "stateMutability": "nonpayable",
      "type": "constructor"
    },
    {
      "anonymous": false,
      "inputs": [
        {
          "indexed": true,
          "internalType": "uint256",
          "name": "modelId",
          "type": "uint256"
        },
        {
          "indexed": true,
          "internalType": "address",
          "name": "seller",
          "type": "address"
        },
        {
          "indexed": false,
          "internalType": "uint256",
          "name": "price",
          "type": "uint256"
        }
      ],
      "name": "ModelListed",
      "type": "event"
    },
    {
      "anonymous": false,
      "inputs": [
        {
          "indexed": true,
          "internalType": "uint256",
          "name": "modelId",
          "type": "uint256"
        },
        {
          "indexed": true,
          "internalType": "address",
          "name": "buyer",
          "type": "address"
        }
      ],
      "name": "ModelPurchased",
      "type": "event"
    },
    {
      "inputs": [
        {
          "internalType": "uint256",
          "name": "modelId",
          "type": "uint256"
        }
      ],
      "name": "buyModel",
      "outputs": [],
      "stateMutability": "nonpayable",
      "type": "function"
    },
    {
      "inputs": [
        {
          "internalType": "uint256",
          "name": "",
          "type": "uint256"
        }
      ],
      "name": "buyers",
      "outputs": [
        {
          "internalType": "address",
          "name": "",
          "type": "address"
        }
      ],
      "stateMutability": "view",
      "type": "function"
    },
    {
      "inputs": [
        {
          "internalType": "uint256",
          "name": "modelId",
          "type": "uint256"
        }
      ],
      "name": "getModel",
      "outputs": [
        {
          "components": [
            {
              "internalType": "string",
              "name": "name",
              "type": "string"
            },
            {
              "internalType": "string",
              "name": "description",
              "type": "string"
            },
            {
              "internalType": "uint256",
              "name": "price",
              "type": "uint256"
            },
            {
              "internalType": "address",
              "name": "seller",
              "type": "address"
            },
            {
              "internalType": "string",
              "name": "accessLink",
              "type": "string"
            },
            {
              "internalType": "bool",
              "name": "sold",
              "type": "bool"
            }
          ],
          "internalType": "struct AIModelMarketplace.AIModel",
          "name": "",
          "type": "tuple"
        }
      ],
      "stateMutability": "view",
      "type": "function"
    },
    {
      "inputs": [],
      "name": "getModels",
      "outputs": [
        {
          "components": [
            {
              "internalType": "string",
              "name": "name",
              "type": "string"
            },
            {
              "internalType": "string",
              "name": "description",
              "type": "string"
            },
            {
              "internalType": "uint256",
              "name": "price",
              "type": "uint256"
            },
            {
              "internalType": "address",
              "name": "seller",
              "type": "address"
            },
            {
              "internalType": "string",
              "name": "accessLink",
              "type": "string"
            },
            {
              "internalType": "bool",
              "name": "sold",
              "type": "bool"
            }
          ],
          "internalType": "struct AIModelMarketplace.AIModel[]",
          "name": "",
          "type": "tuple[]"
        }
      ],
      "stateMutability": "view",
      "type": "function"
    },
    {
      "inputs": [
        {
          "internalType": "address",
          "name": "user",
          "type": "address"
        }
      ],
      "name": "getMyModels",
      "outputs": [
        {
          "components": [
            {
              "internalType": "string",
              "name": "name",
              "type": "string"
            },
            {
              "internalType": "string",
              "name": "description",
              "type": "string"
            },
            {
              "internalType": "uint256",
              "name": "price",
              "type": "uint256"
            },
            {
              "internalType": "address",
              "name": "seller",
              "type": "address"
            },
            {
              "internalType": "string",
              "name": "accessLink",
              "type": "string"
            },
            {
              "internalType": "bool",
              "name": "sold",
              "type": "bool"
            }
          ],
          "internalType": "struct AIModelMarketplace.AIModel[]",
          "name": "",
          "type": "tuple[]"
        }
      ],
      "stateMutability": "view",
      "type": "function"
    },
    {
      "inputs": [
        {
          "internalType": "string",
          "name": "name",
          "type": "string"
        },
        {
          "internalType": "string",
          "name": "description",
          "type": "string"
        },
        {
          "internalType": "uint256",
          "name": "price",
          "type": "uint256"
        },
        {
          "internalType": "string",
          "name": "accessLink",
          "type": "string"
        }
      ],
      "name": "listModel",
      "outputs": [],
      "stateMutability": "nonpayable",
      "type": "function"
    },
    {
      "inputs": [],
      "name": "marketplaceToken",
      "outputs": [
        {
          "internalType": "contract IERC20",
          "name": "",
          "type": "address"
        }
      ],
      "stateMutability": "view",
      "type": "function"
    },
    {
      "inputs": [
        {
          "internalType": "uint256",
          "name": "",
          "type": "uint256"
        }
      ],
      "name": "models",
      "outputs": [
        {
          "internalType": "string",
          "name": "name",
          "type": "string"
        },
        {
          "internalType": "string",
          "name": "description",
          "type": "string"
        },
        {
          "internalType": "uint256",
          "name": "price",
          "type": "uint256"
        },
        {
          "internalType": "address",
          "name": "seller",
          "type": "address"
        },
        {
          "internalType": "string",
          "name": "accessLink",
          "type": "string"
        },
        {
          "internalType": "bool",
          "name": "sold",
          "type": "bool"
        }
      ],
      "stateMutability": "view",
      "type": "function"
    }
  ],
  "bytecode": "0x60806040523480156200001157600080fd5b5060405162002004380380620020048339818101604052810190620000379190620000e8565b806000806101000a81548173ffffffffffffffffffffffffffffffffffffffff021916908373ffffffffffffffffffffffffffffffffffffffff160217905550506200011a565b600080fd5b600073ffffffffffffffffffffffffffffffffffffffff82169050919050565b6000620000b08262000083565b9050919050565b620000c281620000a3565b8114620000ce57600080fd5b50565b600081519050620000e281620000b7565b92915050565b6000602082840312156200010157620001006200007e565b5b60006200011184828501620000d1565b91505092915050565b611eda806200012a6000396000f3fe608060405234801561001057600080fd5b50600436106100885760003560e01c80637ad3def81161005b5780637ad3def814610140578063bf6a6fc11461015e578063e2d2c9ae1461017a578063f2aa82181461019657610088565b806309817d451461008d5780632b86f314146100ab5780636a030ca9146100db5780636d36169414610110575b600080fd5b6100956101c6565b6040516100a291906113f4565b60405180910390f35b6100c560048036038101906100c09190611456565b610456565b6040516100d291906113f4565b60405180910390f35b6100f560048036038101906100f091906114af565b61086b565b60405161010796959493929190611553565b60405180910390f35b61012a600480360381019061012591906114af565b610a7c565b6040516101379190611660565b60405180910390f35b610148610ce9565b60405161015591906116e1565b60405180910390f35b610178600480360381019061017391906114af565b610d0d565b005b610194600480360381019061018f9190611831565b610f8a565b005b6101b060048036038101906101ab91906114af565b611115565b6040516101bd91906118ec565b60405180910390f35b60606001805480602002602001604051908101604052809291908181526020016000905b8282101561044d57838290600052602060002090600602016040518060c001604052908160008201805461021d90611936565b80601f016020809104026020016040519081016040528092919081815260200182805461024990611936565b80156102965780601f1061026b57610100808354040283529160200191610296565b820191906000526020600020905b81548152906001019060200180831161027957829003601f168201915b505050505081526020016001820180546102af90611936565b80601f01602080910402602001604051908101604052809291908181526020018280546102db90611936565b80156103285780601f106102fd57610100808354040283529160200191610328565b820191906000526020600020905b81548152906001019060200180831161030b57829003601f168201915b50505050508152602001600282015481526020016003820160009054906101000a900473ffffffffffffffffffffffffffffffffffffffff1673ffffffffffffffffffffffffffffffffffffffff1673ffffffffffffffffffffffffffffffffffffffff1681526020016004820180546103a190611936565b80601f01602080910402602001604051908101604052809291908181526020018280546103cd90611936565b801561041a5780601f106103ef5761010080835404028352916020019161041a565b820191906000526020600020905b8154815290600101906020018083116103fd57829003601f168201915b505050505081526020016005820160009054906101000a900460ff161515151581525050815260200190600101906101ea565b50505050905090565b60606000805b6001805490508110156104f1578373ffffffffffffffffffffffffffffffffffffffff166002600083815260200190815260200160002060009054906101000a900473ffffffffffffffffffffffffffffffffffffffff1673ffffffffffffffffffffffffffffffffffffffff16036104de5781806104da90611996565b9250505b80806104e990611996565b91505061045c565b5060008167ffffffffffffffff81111561050e5761050d611706565b5b60405190808252806020026020018201604052801561054757816020015b610534611148565b81526020019060019003908161052c5790505b5090506000805b60018054905081101561085f578573ffffffffffffffffffffffffffffffffffffffff166002600083815260200190815260200160002060009054906101000a900473ffffffffffffffffffffffffffffffffffffffff1673ffffffffffffffffffffffffffffffffffffffff160361084c57600181815481106105d5576105d46119de565b5b90600052602060002090600602016040518060c00160405290816000820180546105fe90611936565b80601f016020809104026020016040519081016040528092919081815260200182805461062a90611936565b80156106775780601f1061064c57610100808354040283529160200191610677565b820191906000526020600020905b81548152906001019060200180831161065a57829003601f168201915b5050505050815260200160018201805461069090611936565b80601f01602080910402602001604051908101604052809291908181526020018280546106bc90611936565b80156107095780601f106106de57610100808354040283529160200191610709565b820191906000526020600020905b8154815290600101906020018083116106ec57829003601f168201915b50505050508152602001600282015481526020016003820160009054906101000a900473ffffffffffffffffffffffffffffffffffffffff1673ffffffffffffffffffffffffffffffffffffffff1673ffffffffffffffffffffffffffffffffffffffff16815260200160048201805461078290611936565b80601f01602080910402602001604051908101604052809291908181526020018280546107ae90611936565b80156107fb5780601f106107d0576101008083540402835291602001916107fb565b820191906000526020600020905b8154815290600101906020018083116107de57829003601f168201915b505050505081526020016005820160009054906101000a900460ff161515151581525050838381518110610832576108316119de565b5b6020026020010181905250818061084890611996565b9250505b808061085790611996565b91505061054e565b50819350505050919050565b6001818154811061087b57600080fd5b906000526020600020906006020160009150905080600001805461089e90611936565b80601f01602080910402602001604051908101604052809291908181526020018280546108ca90611936565b80156109175780601f106108ec57610100808354040283529160200191610917565b820191906000526020600020905b8154815290600101906020018083116108fa57829003601f168201915b50505050509080600101805461092c90611936565b80601f016020809104026020016040519081016040528092919081815260200182805461095890611936565b80156109a55780601f1061097a576101008083540402835291602001916109a5565b820191906000526020600020905b81548152906001019060200180831161098857829003601f168201915b5050505050908060020154908060030160009054906101000a900473ffffffffffffffffffffffffffffffffffffffff16908060040180546109e690611936565b80601f0160208091040260200160405190810160405280929190818152602001828054610a1290611936565b8015610a5f5780601f10610a3457610100808354040283529160200191610a5f565b820191906000526020600020905b815481529060010190602001808311610a4257829003601f168201915b5050505050908060050160009054906101000a900460ff16905086565b610a84611148565b60018281548110610a9857610a976119de565b5b90600052602060002090600602016040518060c0016040529081600082018054610ac190611936565b80601f0160208091040260200160405190810160405280929190818152602001828054610aed90611936565b8015610b3a5780601f10610b0f57610100808354040283529160200191610b3a565b820191906000526020600020905b815481529060010190602001808311610b1d57829003601f168201915b50505050508152602001600182018054610b5390611936565b80601f0160208091040260200160405190810160405280929190818152602001828054610b7f90611936565b8015610bcc5780601f10610ba157610100808354040283529160200191610bcc565b820191906000526020600020905b815481529060010190602001808311610baf57829003601f168201915b50505050508152602001600282015481526020016003820160009054906101000a900473ffffffffffffffffffffffffffffffffffffffff1673ffffffffffffffffffffffffffffffffffffffff1673ffffffffffffffffffffffffffffffffffffffff168152602001600482018054610c4590611936565b80601f0160208091040260200160405190810160405280929190818152602001828054610c7190611936565b8015610cbe5780601f10610c9357610100808354040283529160200191610cbe565b820191906000526020600020905b815481529060010190602001808311610ca157829003601f168201915b505050505081526020016005820160009054906101000a900460ff1615151515815250509050919050565b60008054906101000a900473ffffffffffffffffffffffffffffffffffffffff1681565b6001805490508110610d54576040517f08c379a0000000000000000000000000000000000000000000000000000000008152600401610d4b90611a59565b60405180910390fd5b600060018281548110610d6a57610d696119de565b5b906000526020600020906006020190508060050160009054906101000a900460ff1615610dcc576040517f08c379a0000000000000000000000000000000000000000000000000000000008152600401610dc390611ac5565b60405180910390fd5b60008054906101000a900473ffffffffffffffffffffffffffffffffffffffff1673ffffffffffffffffffffffffffffffffffffffff166323b872dd338360030160009054906101000a900473ffffffffffffffffffffffffffffffffffffffff1684600201546040518463ffffffff1660e01b8152600401610e5193929190611ae5565b6020604051808303816000875af1158015610e70573d6000803e3d6000fd5b505050506040513d601f19601f82011682018060405250810190610e949190611b48565b610ed3576040517f08c379a0000000000000000000000000000000000000000000000000000000008152600401610eca90611bc1565b60405180910390fd5b60018160050160006101000a81548160ff021916908315150217905550336002600084815260200190815260200160002060006101000a81548173ffffffffffffffffffffffffffffffffffffffff021916908373ffffffffffffffffffffffffffffffffffffffff1602179055503373ffffffffffffffffffffffffffffffffffffffff16827fc8581808129c51c0416692a5ea1b58e080ae8f21e384eefe2f2dc85d231d12ba60405160405180910390a35050565b60016040518060c001604052808681526020018581526020018481526020013373ffffffffffffffffffffffffffffffffffffffff16815260200183815260200160001515815250908060018154018082558091505060019003906000526020600020906006020160009091909190915060008201518160000190816110109190611d83565b5060208201518160010190816110269190611d83565b506040820151816002015560608201518160030160006101000a81548173ffffffffffffffffffffffffffffffffffffffff021916908373ffffffffffffffffffffffffffffffffffffffff160217905550608082015181600401908161108d9190611d83565b5060a08201518160050160006101000a81548160ff02191690831515021790555050503373ffffffffffffffffffffffffffffffffffffffff16600180805490506110d89190611e55565b7f9bd8ea027140589a00b923b981d55ddbfbb8a7c266dcbc6fd9e2eabdbe2ce0cb846040516111079190611e89565b60405180910390a350505050565b60026020528060005260406000206000915054906101000a900473ffffffffffffffffffffffffffffffffffffffff1681565b6040518060c00160405280606081526020016060815260200160008152602001600073ffffffffffffffffffffffffffffffffffffffff168152602001606081526020016000151581525090565b600081519050919050565b600082825260208201905092915050565b6000819050602082019050919050565b600081519050919050565b600082825260208201905092915050565b60005b838110156111fc5780820151818401526020810190506111e1565b60008484015250505050565b6000601f19601f8301169050919050565b6000611224826111c2565b61122e81856111cd565b935061123e8185602086016111de565b61124781611208565b840191505092915050565b6000819050919050565b61126581611252565b82525050565b600073ffffffffffffffffffffffffffffffffffffffff82169050919050565b60006112968261126b565b9050919050565b6112a68161128b565b82525050565b60008115159050919050565b6112c1816112ac565b82525050565b600060c08301600083015184820360008601526112e48282611219565b915050602083015184820360208601526112fe8282611219565b9150506040830151611313604086018261125c565b506060830151611326606086018261129d565b506080830151848203608086015261133e8282611219565b91505060a083015161135360a08601826112b8565b508091505092915050565b600061136a83836112c7565b905092915050565b6000602082019050919050565b600061138a82611196565b61139481856111a1565b9350836020820285016113a6856111b2565b8060005b858110156113e257848403895281516113c3858261135e565b94506113ce83611372565b925060208a019950506001810190506113aa565b50829750879550505050505092915050565b6000602082019050818103600083015261140e818461137f565b905092915050565b6000604051905090565b600080fd5b600080fd5b6114338161128b565b811461143e57600080fd5b50565b6000813590506114508161142a565b92915050565b60006020828403121561146c5761146b611420565b5b600061147a84828501611441565b91505092915050565b61148c81611252565b811461149757600080fd5b50565b6000813590506114a981611483565b92915050565b6000602082840312156114c5576114c4611420565b5b60006114d38482850161149a565b91505092915050565b600082825260208201905092915050565b60006114f8826111c2565b61150281856114dc565b93506115128185602086016111de565b61151b81611208565b840191505092915050565b61152f81611252565b82525050565b61153e8161128b565b82525050565b61154d816112ac565b82525050565b600060c082019050818103600083015261156d81896114ed565b9050818103602083015261158181886114ed565b90506115906040830187611526565b61159d6060830186611535565b81810360808301526115af81856114ed565b90506115be60a0830184611544565b979650505050505050565b600060c08301600083015184820360008601526115e68282611219565b915050602083015184820360208601526116008282611219565b9150506040830151611615604086018261125c565b506060830151611628606086018261129d565b50608083015184820360808601526116408282611219565b91505060a083015161165560a08601826112b8565b508091505092915050565b6000602082019050818103600083015261167a81846115c9565b905092915050565b6000819050919050565b60006116a76116a261169d8461126b565b611682565b61126b565b9050919050565b60006116b98261168c565b9050919050565b60006116cb826116ae565b9050919050565b6116db816116c0565b82525050565b60006020820190506116f660008301846116d2565b92915050565b600080fd5b600080fd5b7f4e487b7100000000000000000000000000000000000000000000000000000000600052604160045260246000fd5b61173e82611208565b810181811067ffffffffffffffff8211171561175d5761175c611706565b5b80604052505050565b6000611770611416565b905061177c8282611735565b919050565b600067ffffffffffffffff82111561179c5761179b611706565b5b6117a582611208565b9050602081019050919050565b82818337600083830152505050565b60006117d46117cf84611781565b611766565b9050828152602081018484840111156117f0576117ef611701565b5b6117fb8482856117b2565b509392505050565b600082601f830112611818576118176116fc565b5b81356118288482602086016117c1565b91505092915050565b6000806000806080858703121561184b5761184a611420565b5b600085013567ffffffffffffffff81111561186957611868611425565b5b61187587828801611803565b945050602085013567ffffffffffffffff81111561189657611895611425565b5b6118a287828801611803565b93505060406118b38782880161149a565b925050606085013567ffffffffffffffff8111156118d4576118d3611425565b5b6118e087828801611803565b91505092959194509250565b60006020820190506119016000830184611535565b92915050565b7f4e487b7100000000000000000000000000000000000000000000000000000000600052602260045260246000fd5b6000600282049050600182168061194e57607f821691505b60208210810361196157611960611907565b5b50919050565b7f4e487b7100000000000000000000000000000000000000000000000000000000600052601160045260246000fd5b60006119a182611252565b91507fffffffffffffffffffffffffffffffffffffffffffffffffffffffffffffffff82036119d3576119d2611967565b5b600182019050919050565b7f4e487b7100000000000000000000000000000000000000000000000000000000600052603260045260246000fd5b7f496e76616c6964206d6f64656c20494400000000000000000000000000000000600082015250565b6000611a436010836114dc565b9150611a4e82611a0d565b602082019050919050565b60006020820190508181036000830152611a7281611a36565b9050919050565b7f4d6f64656c20616c726561647920736f6c640000000000000000000000000000600082015250565b6000611aaf6012836114dc565b9150611aba82611a79565b602082019050919050565b60006020820190508181036000830152611ade81611aa2565b9050919050565b6000606082019050611afa6000830186611535565b611b076020830185611535565b611b146040830184611526565b949350505050565b611b25816112ac565b8114611b3057600080fd5b50565b600081519050611b4281611b1c565b92915050565b600060208284031215611b5e57611b5d611420565b5b6000611b6c84828501611b33565b91505092915050565b7f5061796d656e74206661696c6564000000000000000000000000000000000000600082015250565b6000611bab600e836114dc565b9150611bb682611b75565b602082019050919050565b60006020820190508181036000830152611bda81611b9e565b9050919050565b60008190508160005260206000209050919050565b60006020601f8301049050919050565b600082821b905092915050565b600060088302611c437fffffffffffffffffffffffffffffffffffffffffffffffffffffffffffffffff82611c06565b611c4d8683611c06565b95508019841693508086168417925050509392505050565b6000611c80611c7b611c7684611252565b611682565b611252565b9050919050565b6000819050919050565b611c9a83611c65565b611cae611ca682611c87565b848454611c13565b825550505050565b600090565b611cc3611cb6565b611cce818484611c91565b505050565b5b81811015611cf257611ce7600082611cbb565b600181019050611cd4565b5050565b601f821115611d3757611d0881611be1565b611d1184611bf6565b81016020851015611d20578190505b611d34611d2c85611bf6565b830182611cd3565b50505b505050565b600082821c905092915050565b6000611d5a60001984600802611d3c565b1980831691505092915050565b6000611d738383611d49565b9150826002028217905092915050565b611d8c826111c2565b67ffffffffffffffff811115611da557611da4611706565b5b611daf8254611936565b611dba828285611cf6565b600060209050601f831160018114611ded5760008415611ddb578287015190505b611de58582611d67565b865550611e4d565b601f198416611dfb86611be1565b60005b82811015611e2357848901518255600182019150602085019450602081019050611dfe565b86831015611e405784890151611e3c601f891682611d49565b8355505b6001600288020188555050505b505050505050565b6000611e6082611252565b9150611e6b83611252565b9250828203905081811115611e8357611e82611967565b5b92915050565b6000602082019050611e9e6000830184611526565b9291505056fea2646970667358221220fda6e3bc0ea4eaf7b2be58b4591ebc74ece131d4c96345ed6b937cf8f36af59a64736f6c63430008140033",
  "linkReferences": {},
  "deployedLinkReferences": {}
}